{
  "contractName": "Escrows",
  "abi": [
    {
      "constant": true,
      "inputs": [
        {
          "name": "",
          "type": "bytes32"
        }
      ],
      "name": "escrows",
      "outputs": [
        {
          "name": "exists",
          "type": "bool"
        },
        {
          "name": "_orderID",
          "type": "uint256"
        },
        {
          "name": "_buyer",
          "type": "address"
        },
        {
          "name": "_seller",
          "type": "address"
        },
        {
          "name": "_value",
          "type": "uint256"
        }
      ],
      "payable": false,
      "stateMutability": "view",
      "type": "function"
    },
    {
      "constant": true,
      "inputs": [],
      "name": "arbitrator",
      "outputs": [
        {
          "name": "",
          "type": "address"
        }
      ],
      "payable": false,
      "stateMutability": "view",
      "type": "function"
    },
    {
      "constant": true,
      "inputs": [],
      "name": "owner",
      "outputs": [
        {
          "name": "",
          "type": "address"
        }
      ],
      "payable": false,
      "stateMutability": "view",
      "type": "function"
    },
    {
      "inputs": [],
      "payable": false,
      "stateMutability": "nonpayable",
      "type": "constructor"
    },
    {
      "constant": false,
      "inputs": [
        {
          "name": "_orderID",
          "type": "uint256"
        },
        {
          "name": "_buyer",
          "type": "address"
        },
        {
          "name": "_seller",
          "type": "address"
        },
        {
          "name": "_value",
          "type": "uint256"
        }
      ],
      "name": "createEscrow",
      "outputs": [],
      "payable": true,
      "stateMutability": "payable",
      "type": "function"
    },
    {
      "constant": false,
      "inputs": [
        {
          "name": "_orderID",
          "type": "uint256"
        },
        {
          "name": "_buyer",
          "type": "address"
        },
        {
          "name": "_seller",
          "type": "address"
        }
      ],
      "name": "transferMoney",
      "outputs": [],
      "payable": false,
      "stateMutability": "nonpayable",
      "type": "function"
    }
  ],
  "bytecode": "0x608060405234801561001057600080fd5b50336000806101000a81548173ffffffffffffffffffffffffffffffffffffffff021916908373ffffffffffffffffffffffffffffffffffffffff16021790555033600160006101000a81548173ffffffffffffffffffffffffffffffffffffffff021916908373ffffffffffffffffffffffffffffffffffffffff160217905550610899806100a16000396000f30060806040526004361061006d576000357c0100000000000000000000000000000000000000000000000000000000900463ffffffff16806318144720146100725780632d83549c146100df5780636cc6cde11461019c5780638da5cb5b146101f3578063fe51c9311461024a575b600080fd5b34801561007e57600080fd5b506100dd60048036038101908080359060200190929190803573ffffffffffffffffffffffffffffffffffffffff169060200190929190803573ffffffffffffffffffffffffffffffffffffffff1690602001909291905050506102b4565b005b3480156100eb57600080fd5b5061010e600480360381019080803560001916906020019092919050505061050b565b60405180861515151581526020018581526020018473ffffffffffffffffffffffffffffffffffffffff1673ffffffffffffffffffffffffffffffffffffffff1681526020018373ffffffffffffffffffffffffffffffffffffffff1673ffffffffffffffffffffffffffffffffffffffff1681526020018281526020019550505050505060405180910390f35b3480156101a857600080fd5b506101b161058e565b604051808273ffffffffffffffffffffffffffffffffffffffff1673ffffffffffffffffffffffffffffffffffffffff16815260200191505060405180910390f35b3480156101ff57600080fd5b506102086105b4565b604051808273ffffffffffffffffffffffffffffffffffffffff1673ffffffffffffffffffffffffffffffffffffffff16815260200191505060405180910390f35b6102b260048036038101908080359060200190929190803573ffffffffffffffffffffffffffffffffffffffff169060200190929190803573ffffffffffffffffffffffffffffffffffffffff169060200190929190803590602001909291905050506105d9565b005b60006102be61080f565b848484604051808481526020018373ffffffffffffffffffffffffffffffffffffffff1673ffffffffffffffffffffffffffffffffffffffff166c010000000000000000000000000281526014018273ffffffffffffffffffffffffffffffffffffffff1673ffffffffffffffffffffffffffffffffffffffff166c0100000000000000000000000002815260140193505050506040518091039020915060026000836000191660001916815260200190815260200160002060a060405190810160405290816000820160009054906101000a900460ff16151515158152602001600182015481526020016002820160009054906101000a900473ffffffffffffffffffffffffffffffffffffffff1673ffffffffffffffffffffffffffffffffffffffff1673ffffffffffffffffffffffffffffffffffffffff1681526020016003820160009054906101000a900473ffffffffffffffffffffffffffffffffffffffff1673ffffffffffffffffffffffffffffffffffffffff1673ffffffffffffffffffffffffffffffffffffffff1681526020016004820154815250509050600115158160000151151514151561047757600080fd5b3373ffffffffffffffffffffffffffffffffffffffff16816040015173ffffffffffffffffffffffffffffffffffffffff161415156104b557600080fd5b806060015173ffffffffffffffffffffffffffffffffffffffff166108fc82608001519081150290604051600060405180830381858888f19350505050158015610503573d6000803e3d6000fd5b505050505050565b60026020528060005260406000206000915090508060000160009054906101000a900460ff16908060010154908060020160009054906101000a900473ffffffffffffffffffffffffffffffffffffffff16908060030160009054906101000a900473ffffffffffffffffffffffffffffffffffffffff16908060040154905085565b600160009054906101000a900473ffffffffffffffffffffffffffffffffffffffff1681565b6000809054906101000a900473ffffffffffffffffffffffffffffffffffffffff1681565b60006105e361080f565b82341415156105f157600080fd5b858585604051808481526020018373ffffffffffffffffffffffffffffffffffffffff1673ffffffffffffffffffffffffffffffffffffffff166c010000000000000000000000000281526014018273ffffffffffffffffffffffffffffffffffffffff1673ffffffffffffffffffffffffffffffffffffffff166c010000000000000000000000000281526014019350505050604051809103902091506000151560026000846000191660001916815260200190815260200160002060000160009054906101000a900460ff1615151415156106cd57600080fd5b60a0604051908101604052806001151581526020018781526020018673ffffffffffffffffffffffffffffffffffffffff1681526020018573ffffffffffffffffffffffffffffffffffffffff1681526020018481525090508060026000846000191660001916815260200190815260200160002060008201518160000160006101000a81548160ff0219169083151502179055506020820151816001015560408201518160020160006101000a81548173ffffffffffffffffffffffffffffffffffffffff021916908373ffffffffffffffffffffffffffffffffffffffff16021790555060608201518160030160006101000a81548173ffffffffffffffffffffffffffffffffffffffff021916908373ffffffffffffffffffffffffffffffffffffffff16021790555060808201518160040155905050505050505050565b60a06040519081016040528060001515815260200160008152602001600073ffffffffffffffffffffffffffffffffffffffff168152602001600073ffffffffffffffffffffffffffffffffffffffff1681526020016000815250905600a165627a7a723058207b2e948721d0ccb31d192df42ea7a10f12162dcb58911774ad705ea663a6bcb00029",
  "source": "pragma solidity ^0.4.23;\n\ncontract Escrows {\n    address public owner;\n    address public arbitrator;\n\n    struct Escrow {\n        bool exists;\n        uint256 _orderID;\n        address _buyer;\n        address _seller;\n        uint256 _value;\n    }\n\n    mapping (bytes32 => Escrow) public escrows;\n\n    modifier onlyOwner() {\n        require(owner == msg.sender);\n        _;\n    }\n\n    modifier onlyArbitrator() {\n        require(arbitrator == msg.sender);\n        _;\n    }\n\n    function Escrows() {\n        owner = msg.sender;\n        arbitrator = msg.sender;\n    }\n\n    function createEscrow(\n        uint256 _orderID,\n        address _buyer,\n        address _seller,\n        uint256 _value\n    ) external payable {\n        require(msg.value == _value);\n\n        bytes32 hash = keccak256(uint256(_orderID), _buyer, _seller);\n\n        require(escrows[hash].exists == false);\n\n        Escrow memory escrow = Escrow(true, _orderID, _buyer, _seller, _value);\n\n        escrows[hash] = escrow;\n    }\n\n    function transferMoney(\n        uint256 _orderID,\n        address _buyer,\n        address _seller\n    ) external {\n        bytes32 hash = keccak256(uint256(_orderID), _buyer, _seller);\n\n        Escrow memory escrow = escrows[hash];\n\n        require(escrow.exists == true);\n        require(escrow._buyer == msg.sender);\n\n        escrow._seller.transfer(escrow._value);\n    }\n}",
  "sourcePath": "/Users/oxygene/work/flogmall-escrow/contracts/Escrows.sol",
  "compiler": {
    "name": "solc",
    "version": "0.4.24+commit.e67f0147.Emscripten.clang"
  },
  "schemaVersion": "2.0.0",
  "updatedAt": "2018-05-29T14:50:25.647Z"
}